{
  "transactions": [
    {
      "hash": "0xa1385583c8f1914f48c9f28c2b49f61eb1c9bc93a926b15e9cb84084c7c4c8b2",
      "transactionType": "CALL",
      "contractName": null,
      "contractAddress": "0x4fc85819dc90e5343bff720c17f51476b621de91",
      "function": "mintNft(string)",
      "arguments": [
        "ipfs://bafybeig37ioir76s7mg5oobetncojcm3c3hxasyd4rvid4jqhy4gkaheg4/?filename=0-PUG.json"
      ],
      "transaction": {
        "from": "0x7b32df263625bfcc9edf743a382b81c2e1a567ec",
        "to": "0x4fc85819dc90e5343bff720c17f51476b621de91",
        "gas": "0x3da7f",
        "value": "0x0",
        "input": "0xda86f4a900000000000000000000000000000000000000000000000000000000000000200000000000000000000000000000000000000000000000000000000000000057697066733a2f2f62616679626569673337696f6972373673376d67356f6f6265746e636f6a636d3363336878617379643472766964346a71687934676b61686567342f3f66696c656e616d653d302d5055472e6a736f6e000000000000000000",
        "nonce": "0x86",
        "chainId": "0xaa36a7"
      },
      "additionalContracts": [],
      "isFixedGasLimit": false
    }
  ],
  "receipts": [
    {
      "status": "0x1",
      "cumulativeGasUsed": "0x15326c0",
      "logs": [
        {
          "address": "0x4fc85819dc90e5343bff720c17f51476b621de91",
          "topics": [
            "0xddf252ad1be2c89b69c2b068fc378daa952ba7f163c4a11628f55a4df523b3ef",
            "0x0000000000000000000000000000000000000000000000000000000000000000",
            "0x0000000000000000000000007b32df263625bfcc9edf743a382b81c2e1a567ec",
            "0x0000000000000000000000000000000000000000000000000000000000000000"
          ],
          "data": "0x",
          "blockHash": "0x80534b9c88b5b4e35fa13775ffc64618c0eea5b94b8ab440e1e0aaf5bc6316ae",
          "blockNumber": "0x8753f1",
          "blockTimestamp": "0x6888e328",
          "transactionHash": "0xa1385583c8f1914f48c9f28c2b49f61eb1c9bc93a926b15e9cb84084c7c4c8b2",
          "transactionIndex": "0x8e",
          "logIndex": "0x132",
          "removed": false
        }
      ],
      "logsBloom": "0x00000000000000000000000000000000000000000000000000000000000000000000000020000000000000000000000000000000000000000000000000000000000000000000000000000008000000000000000000000000000000000000000000000000020000000000000000000800000000000002000000000010000000000002000000000000000000000000000000000000000000000000000000000000000000000000000000000000000000000000000000000000000000000000000000000002000400000000000000000000000000000000000000000000800020080000000000000000000000000000000000000000000000000000000000000000",
      "type": "0x2",
      "transactionHash": "0xa1385583c8f1914f48c9f28c2b49f61eb1c9bc93a926b15e9cb84084c7c4c8b2",
      "transactionIndex": "0x8e",
      "blockHash": "0x80534b9c88b5b4e35fa13775ffc64618c0eea5b94b8ab440e1e0aaf5bc6316ae",
      "blockNumber": "0x8753f1",
      "gasUsed": "0x2ca35",
      "effectiveGasPrice": "0xbfdd256",
      "from": "0x7b32df263625bfcc9edf743a382b81c2e1a567ec",
      "to": "0x4fc85819dc90e5343bff720c17f51476b621de91",
      "contractAddress": null
    }
  ],
  "libraries": [],
  "pending": [],
  "returns": {},
  "timestamp": 1753801510,
  "chain": 11155111,
  "commit": "29c8774"
}